:020000040000fa
:100000000200de021003000000000002100b0000de
:10001000000000021013000000000002101b00008e
:10002000000000021023000000000002102b00005e
:10003000000000021033000000000002103b00002e
:10004000000000021043000000000002104b0000fe
:10005000000000021053000000000002105b0000ce
:10006000000000021063000000000002106b00009e
:10007000000000021073000000000002107b00006e
:10008000000000021083000000000002108b00003e
:10009000000000020d021200f0b900030200d8e4d3
:1000a00090000278a479018002f0a3d8fcd9fa90dc
:1000b00000a5aa82ab839000f6780979018015e447
:1000c00093a3ac82ad838a828b83f0a3aa82ab8395
:1000d0008c828d83d8e9d9e71202e0120d2175d008
:1000e0000075813f75188075931e5392fe0200962d
:1000f00079015392fe220010000000000200bb01b3
:1001000002e722c0925392fec082c08389828a8312
:10011000bb0003e08002e493d083d082d09222bb64
:100120000015c0925392fec082c0838a838982f0f8
:10013000d083d082d09222bb0101f722cac0e0e670
:10014000f30908dafad0e0fa22cac0e0e0f208a324
:10015000dafad0e0fa22600c08c6c313c618c61338
:10016000c6d5e0f422700422600d18c6c333c60859
:10017000c633c6d5e0f41822e4735392fed083d080
:10018000822518f8c518c39824fbcef208e520f2a2
:1001900008e9c0e07908e709f208defad0e0f9eff3
:1001a000f208d0e0fed0e0f208eef208e473a818fe
:1001b000e2fe08e208f520e9c0e07908e208f70964
:1001c000dffae208ffd0e0f9e208c0e0e208c0e0b0
:1001d00088185392fe22e584f208e585f222e208af
:1001e000f584e2f585227403800474028000c9c09e
:1001f000e0e518c399f518c912013cd0e0f9227462
:10020000038000c8c0e0e518c398f518c81201497a
:10021000d0e0f8227400f5d374022408f5d253928a
:10022000fe22a2afe433f8c2af5392fe906270e0b8
:10023000a2e740f5e9c333906272f0906270e0d2b9
:10024000e0f0e0a2e740fbe8a2e092af2274fa12ed
:10025000017aa2af33f8c2afed900002f0eca3f048
:10026000a37462f0a37473f0a3e4f0e9a3f0a374a1
:1002700012f0a37442f0eb906272f0ea906271f0b7
:100280007400f5d575d40275d601906270e0d2e1a4
:10029000f0e0a2e740fbe8a2e092af7f010201aeee
:1002a0005392fe906276e075c680e59e648070fa97
:1002b0009062707408f02274fa12017af9800c8a44
:1002c000828b83e029f9a3aa82ab83ecfeedffeedb
:1002d00024ff1cef34fffdee4f70e47f010201aefe
:1002e0005392fe900001e090001af0e5c7ff75c739
:1002f000007c007d707a007b901202b7e924a5fe95
:100300008fc77f01e5c7f5088fc77c007d807a0025
:100310007b801202b7e92efe8508c70fefc3940356
:1003200040e2ee7027e59d54186410700890001aa2
:10033000e0a2e040179000017403f005929000a540
:10034000e0f582a3e0f58305921201781202a090f5
:100350000001e4f01202141205ed12061d12067cd3
:1003600080fb74f812017a15181518a8181201d616
:1003700090620ee0fee4f0906211e0ffa2e45019fa
:100380007480f09000227407f012055f6006120579
:100390006a120178900022e4f0efa2e2500b906222
:1003a00011e4f0900022f0805c900022e0f87402ea
:1003b00068703e906216e0ff9000391201ffeff97d
:1003c0007a207b621206290518051805188f0890f7
:1003d000003c1205541205791205626004744080d5
:1003e000027448906211f0e8496003020541020579
:1003f00024740668700612056a120178900022e0e3
:1004000060030204d3efa2e0400302054175083106
:10041000750900750a0078081201e679087a207bd0
:100420006212062905180518051890003ee4f0a38d
:10043000f0900031e054e0600e24e0606a24a06097
:100440004024e06071807ea3e014602624fe601ddd
:1004500024fe600a24fc601f24fe602080671209cd
:10046000e3900022e064047064746080621209dd2d
:1004700080ef1209d780ea120b1680e5120c4e802d
:10048000e0a3e0600e24fa600f24fe601024fe60fa
:1004900011803212080e80c9120a2980c4120aec97
:1004a00080bf120bf080ba90003e74a4f0a37406d3
:1004b000f01206a480ab90003e745ef0a37407f0c7
:1004c00012075e809c9000227404f0809c7440901f
:1004d0006211f0900022e0f874016870597f029078
:1004e000003ce0f8a3e0f9c3e89420e99400500749
:1004f000e8f50a7f0a8003750a209000391201ff8f
:10050000a90a7a207b621206490518051805188584
:100510000a08120579120554ef906211f0e50ac33a
:100520009420501d12055f600612056a1201789032
:100530000022e4f0800b740568700612056a12014f
:1005400078ee90620ef0a8181201de051805187feb
:10055000030201aec3e09508f0a3e09400f02290fe
:10056000003ee0f8a3e0f9e84922059290003ee061
:10057000f582a3e0f583059222900039e0f9a3e02b
:10058000faa3e0fbe92508f9ea3400fa900039e91a
:10059000f0a3eaf0a3ebf0a322c008c0097800881a
:1005a0000874232508f58274003400f583e953921a
:1005b000fef008e8c3940540e67800880874282512
:1005c00008f58274003400f583e9f008e8c3940567
:1005d00040e9d009d008225392fe90001b7402f02b
:1005e000a3e4f0900022f0790312059922c008c01c
:1005f0000975082175090078081201ea7c007d0060
:100600007a407b00120d250518051890001b740216
:10061000f090620f04f0e0a2e750fb80b553f4fec7
:10062000d29043fe015392fe22eec0e012066460b7
:10063000115392fee012011fe9240109ea3400fa85
:10064000d8efd0e0fe5392fe22eec0e012066460c6
:10065000111200fe5392fef0e9240109ea3400fa77
:10066000d8ef80de8a828b83e9f8a918e3fc09e3de
:10067000fd09e3feecf9edfaeefbe822eec0e053f3
:1006800092fe906206e0f8906202e0fe906204e062
:10069000e8a2e250031205d7eea2e0500312036273
:1006a000d0e0fe2274f712017a900032e07003026b
:1006b000074714600302075390001a7401f090007a
:1006c00022e0f87030900037e0f8a3e0f9e84970d4
:1006d000059000ab80749000397461f0a37400f051
:1006e000a3e4f0a3e8f0a3e9f09000227402f090f4
:1006f00000ab0480637402687059900033e02440ba
:10070000f508a3e03400f509e508541f70128508c8
:100710000a85090b7405780a120156a90a120222e9
:10072000900037e0240354fcf97c617d0074047868
:1007300008120165aa08ab0912024d900022e4f0ec
:100740009000ab7405801190001a7402f0900022a2
:10075000e480059000227404f07f040201ae5392fd
:10076000fe900032e06403701a90003974a7f0a381
:100770007400f0a3e4f0a37406f0a3e4f090002268
:100780000480059000227404f0225392fe9000a190
:10079000e4f0a3740ff02274fa12017a15181518f8
:1007a000a8181201d6eafcebf87a007b0008803822
:1007b000e8604d05929000a1e0fda3e0f5838d82f5
:1007c000a3e493fdec6d6034e96d70099000a1e045
:1007d000faa3e0fb189000a1e02efea3e03400ff96
:1007e0009000a1eef0a3eff09000a1e0f584a3e06b
:1007f000f585e4059293fe70b7e860047a007b000b
:10080000a8181201de051805187f010201aec00804
:10081000120be260030208e9a3e0f8a3e060030220
:1008200008e9a3e064027002a3e060030208e99013
:100830000031e02480600914604f14605c0208e914
:10084000e860030208e990002ee06004780180026d
:1008500078009000a3e8f0a3e4f090002de0600a97
:100860009000a3e04402f0a3e4f0900022e06404ce
:10087000601490003974a3f0a37400f0a3e4f0a313
:100880007402120c45f0d0082290001be064047042
:10089000589000a3e4f0a380d0e8547ff5089000be
:1008a0001be064047043e508c39406503c741b25a8
:1008b00008f58274003400f583e854806018a3a31f
:1008c000a3a3a3a3a3e064037004780180027800cb
:1008d0009000a3e88090e582240cf582e583340043
:1008e000f583e0640370e780e19000227404809552
:1008f00074f912017a15181518a8181201d6e9fa18
:10090000900037120be860030209c190001be064fd
:1009100004600b900035120be860030209c19000df
:1009200031e0541f60091460231460120209c19061
:100930000033e064017015ea90002d0209c69000b2
:1009400035e0547ff508900033e060047900807949
:10095000e508c39406506ae50890620ef0741b2502
:1009600008f58474003400f585900035e05480600b
:1009700021ea6004741080027440906211f0ea6011
:100980000474038001e40592a3a3a3a3a3a3a3f08b
:100990008026ea6004742080027480906214f0ea79
:1009a000600474038001e4c0e0e584240cf582e572
:1009b000853400f583d0e0f05392fe90620ee4801f
:1009c000059000227404f07901a8181201de0518c0
:1009d00005187f020201ae79001208f02279011297
:1009e00008f0225392fe900035120be87018a31203
:1009f0000be87012900033e0f8a3e0f9e85480fab5
:100a0000e9fbea4b60079000227404801ae89062c8
:100a100000f090001b6009e06402700c7403800712
:100a2000e0640370037402f02274f812017a120772
:100a30008a900033e0faa3e0f914600814600d1402
:100a4000603280387b007a0079018034eafb7a00da
:100a50007902120797120ad7e92402f9ea3400fa58
:100a600089828a83e493f8740193f990003ce8f05a
:100a7000a3e9801ceafb7a00790380047b007a00fa
:100a8000120797120ad7a37b801200fea3f0a3e4fb
:100a9000f0900039e0fca3e0fda3e0feec4d4e90a9
:100aa0000022700474048029e064046025900037fb
:100ab000e0faa3e0fb90003ce0f8a3e0f9c3ea9879
:100ac000eb99500890003ceaf0a3ebf09000227400
:100ad00001f07f030201ae900039eaf0a3ebf0a32e
:100ae0007480f0900039e0f9a3e0fa22120be27072
:100af00010a3120be8700aa3e064017002a3e06087
:100b0000079000227404800c900039741cf0a374c8
:100b100000120c3bf02274f812017a90001be06482
:100b2000027003020bc9900035120be86003020b40
:100b3000c9a3120be86003020bc9900034e0600304
:100b4000020bc912078a900033e07003020bd17bbd
:100b5000007a0079021207978a088b09ae08af095c
:100b6000ee4f6065900033e0f88e828f83a3a3a3dd
:100b7000a3a3e493c0e0e8fad0e06a70d290001b2f
:100b80007404f0e8a3f0750a008e828f83a3a3a3f8
:100b9000a3e493f8e50ac3985045850a08741d2517
:100ba00008f58274003400f583e4f07b007a007964
:100bb000041207978a828b83e58245836007a3a38b
:100bc000a3e49370e6050a80c09000227404f080cc
:100bd0000e90001cf090001b7403f0f912059902ae
:100be0000ad25392fe900033e0f8a3e0f9e84922dc
:100bf00074f812017a90001be064047019900031bf
:100c0000e064817011120be5700c900037e0640114
:100c10007002a3e060079000227404801a900035ef
:100c2000e0241df508a3e03400f509900039e5083b
:100c3000f0a3e509120c3bf0020ad2f0a3e4f0a302
:100c400004120c4522f0a3e4f0900022042274f96f
:100c500012017a15181518a8181201d690001be079
:100c600064046003020cf5900031e064016003024b
:100c70000cf5900037120be8707b12078a7b007a24
:100c80000079021207978a828b83e5824583600f81
:100c9000a3a3a3a3a3e493f890001ce06870de7bf9
:100ca000007a0279041207978a828b83e582458352
:100cb00060430592900033e0f8a3e0f9900035e03e
:100cc000faa3e0fb858284858385a3a3e493fceaf1
:100cd0006c7001eb600f0592a3a3a3e493fce86c96
:100ce0007001e970ba741d2af58274003bf583e83f
:100cf0005392fe80059000227404f00209c95392b9
:100d0000fe2274fa12017a15181518eafeebffa8f4
:100d100018eef208eff2aa18ab937901120cfe80dc
:100d2000ee12009322ecf9a818e2fc08e2fdec4d6b
:100d30006017e9f88a828b83e85392fef0a3ec24d3
:100d4000ff1ced34fffd4c70ef5392fe22ffffffbe
:100d5000ffffffffffffffffffffffffffffffffa3
:100d6000ffffffffffffffffffffffffffffffff93
:100d7000ffffffffffffffffffffffffffffffff83
:100d8000ffffffffffffffffffffffffffffffff73
:100d9000ffffffffffffffffffffffffffffffff63
:100da000ffffffffffffffffffffffffffffffff53
:100db000ffffffffffffffffffffffffffffffff43
:100dc000ffffffffffffffffffffffffffffffff33
:100dd000ffffffffffffffffffffffffffffffff23
:100de000ffffffffffffffffffffffffffffffff13
:100df000ffffffffffffffffffffffffffffffff03
:100e0000fffffffffffffffffffffffffffffffff2
:100e1000ffffffffffffffffffffffffffffffffe2
:100e2000ffffffffffffffffffffffffffffffffd2
:100e3000ffffffffffffffffffffffffffffffffc2
:100e4000ffffffffffffffffffffffffffffffffb2
:100e5000ffffffffffffffffffffffffffffffffa2
:100e6000ffffffffffffffffffffffffffffffff92
:100e7000ffffffffffffffffffffffffffffffff82
:100e8000ffffffffffffffffffffffffffffffff72
:100e9000ffffffffffffffffffffffffffffffff62
:100ea000ffffffffffffffffffffffffffffffff52
:100eb000ffffffffffffffffffffffffffffffff42
:100ec000ffffffffffffffffffffffffffffffff32
:100ed000ffffffffffffffffffffffffffffffff22
:100ee000ffffffffffffffffffffffffffffffff12
:100ef000ffffffffffffffffffffffffffffffff02
:100f000012010002000000205824feff0000010230
:100f1000030109021b0001010480250904000000ef
:100f2000fe01020409210d03e84000010104030948
:100f300004120342006c00750065006700690067d9
:100f400000610016034c006f007700200045006e22
:100f50000065007200670079000a03310032003337
:100f6000003400080344004600550000ffffffff67
:100f7000ffffffffffffffffffffffffffffffff81
:100f8000ffffffffffffffffffffffffffffffff71
:100f9000ffffffffffffffffffffffffffffffff61
:100fa000ffffffffffffffffffffffffffffffff51
:100fb000ffffffffffffffffffffffffffffffff41
:100fc000ffffffffffffffffffffffffffffffff31
:100fd000ffffffffffffffffffffffffffffffff21
:100fe000ffffffffffffffffffffffffffffffff11
:100ff000ffffffffffffffffffffffffffffffff01
:101000000210f7023242ffffffffff0225b5ffff8c
:10101000ffffff02264cffffffffff022700ffff3d
:10102000ffffff0227ebffffffffff023aaaffffd0
:10103000ffffffffffffffffffffff0226a4fffff1
:10104000ffffff022625ffffffffffffffffffff60
:10105000ffffff023227ffffffffffffffffffff42
:10106000ffffffffffffffffffffff0224ecffff7b
:10107000ffffff022773ffffffffff022571ffff46
:10108000ffffff02324d7582fc75837f74001211e1
:1010900012121133b900030210e1e479347802b876
:1010a00000028004f709d8fce490030278dc79059b
:1010b0008002f0a3d8fcd9fa9007ddaa82ab839016
:1010c0001139786379028015e493a3ac82ad838ae9
:1010d000828b83f0a3aa82ab838c828d83d8e9d9db
:1010e000e77582657583d6740212111275820175d7
:1010f00083dd740212111275d00075813f753100c5
:10110000753202753303759f007593005392fe028a
:101110001091c09ff59fe473d09f225392fed0831d
:10112000d082c09fe493c0e0740193c0e074029346
:10113000f59f2279015392fe2201000000ff00007a
:101140000000000805070000000000020105000083
:1011500000000002020080010000000108030000fe
:10116000000000000d0000000700000104800001e5
:1011700000008000000000070a04000000000007d3
:1011800009611367136d13731379137f13e912c386
:1011900014a5142915111517158000040502000067
:1011a00000800004060600000080000402800004a5
:1011b00004800002000b00000080000600a31961fb
:1011c000169b1bd3162315c9141b142f15e312da13
:1011d0000301ffffff0000000080ffffffff000092
:1011e0000000c00000000300000201020300000f25
:1011f00000c3a88ee8b19dcf7f5eb98b9f41efb051
:1012000055f401fa00960064004b0032001e0014f1
:1012100000d6be898e0001060212131514294176ec
:1012200071ffc1fbe84c90728be7b3518963ab232c
:101230002302841872aa612f3b51a8e53749fbc9e4
:10124000ca0c18532cfd45e300400000ffffffffd0
:10125000faffffff000080006200000005000600aa
:10126000070000000100010000010001020203006c
:10127000020000000000020201000240420f0019bb
:10128000000000093d0000e4fffffffb349b5f808e
:10129000000080001000000000000012111b06b6c4
:1012a0000112111b5db60112111bfdb60112111bbb
:1012b00071b70112111b91b80112111b50b9011223
:1012c000111b6fbb0112111b0abd0112111b90bd36
:1012d0000112111b58be0112111b70bf0112111b0c
:1012e000e1bf0112111b62c00112111b56c1011294
:1012f000111bb5c30112111b2cc40112111bccc44c
:101300000112111b76c50112111b81c60112111b9e
:1013100074c70112111b72cb0112111b12cd0112e5
:10132000111b11ce0112111ba8d00112111baad33f
:101330000112111b7fd50112111b11d80112111bb3
:1013400045dc0112111b5fdd0112111bdedd0112f4
:10135000111b68de0112111bd1de0112111ba5d376
:101360000212111b23d40212111b39d40212111bb9
:101370004fd40212111b65d40212111b86d4021223
:10138000111b9cd40212111bb2d40212111b579cc8
:101390000212111bc29c0212111b249d0212111b6e
:1013a0004a9d0212111b0e9e0212111bb89e0212c0
:1013b000111b0d9f0212111bac9f0212111b0fa0db
:1013c0000212111b80a00212111bf2a00212111bab
:1013d00005a10212111b2ba10212111b60a1021206
:1013e000111b88a10212111bbaa10212111b09a222
:1013f0000212111b49a20212111b9da20212111b03
:10140000aca20212111bb5a20212111b6da3021293
:10141000111bbca40212111bfcb40212111bf2b569
:101420000212111b5fb70212111bf8b70212111b37
:1014300061b80212111b9cb80212111bebb8021208
:10144000111b34b90212111b7db90212111b4dbac6
:101450000212111b68ba0212111b83ba0212111b6d
:1014600095ba0212111ba7ba0212111bbcba0212c2
:10147000111bd0ba0212111bdeba0212111beabafa
:101480000212111b85d50212111bb2d50212111bbb
:1014900000800212111ba7800212111b648c021221
:1014a000111b998c0212111b9e8e0212111babd1c3
:1014b0000212111b13d20212111b37d20212111b7e
:1014c00086d20212111bdbd20212111b82d302122e
:1014d000111b9bd30212111bdea40212111bfba4d1
:1014e0000212111b08a60212111b69a60212111b7f
:1014f00014a70212111b93a80212111b37a9021282
:10150000111b7ea90212111be7a90212111b45aa89
:101510000212111b99aa0212111b28ab0212111bf5
:10152000a6ab0212111b80ac0212111bee7f00123f
:10153000111bf27f0012111bf47f0012111bfa7fa6
:101540000012111b17ad0212111b2fad0212111b3d
:101550005aad0212111ba7ad0212111bc0ad02122f
:10156000111bf2ad0212111b30ae0212111b62ae42
:101570000212111bd9ae0212111beeae0212111b88
:101580000daf0212111b32af0212111b89af0212f2
:10159000111b20b40212111bd4b40212111b5fffe5
:1015a0000112111b89ff0112111bccff0112111b2b
:1015b00064c50212111bbdc50212111b25c6021201
:1015c000111b3dc60212111b67c60212111b81c6f8
:1015d0000212111bb5c60212111b0bc70212111bfe
:1015e00046c70212111bf6c70212111b1ac80212bb
:1015f000111ba2c80212111bcdc80212111b0fc968
:101600000212111b34c90212111b48c90212111b0c
:101610005dc90212111b05ca0212111b9bc00212e6
:10162000111bb7c00212111bf1c00212111bffc027
:101630000212111b30c10212111b5dc10212111bdb
:1016400066c10212111ba9c10212111b2cc2021287
:10165000111b9dc20212111bebc20212111b1bc3f4
:101660000212111b70c30212111b44c40212111b7f
:101670004fc40212111b82c40212111bbbc40212fe
:10168000111b0dc50212111b4ac50212111becdb06
:101690000212111b0cdc0212111b35dc0212111b91
:1016a00008db0212111b1cdb0212111b73db02127e
:1016b000111beadc0212111b85da0212111bb2dacd
:1016c0000212111bc7740012111b2e750012111b80
:1016d00045750012111b89750012111bcf75001280
:1016e000111b29760012111b7d770012111ba578a2
:1016f0000012111b47790012111b6b790012111b8c
:10170000ad790012111b5b7a0012111ba97a00122d
:10171000111b067b0012111b197b0012111b197c77
:101720000012111b397d0012111baf7d0012111b1d
:10173000193c0012111bc43d0012111b363e001251
:10174000111b893f0012111bfb3f0012111b35407a
:101750000012111b03410012111b91410012111bb9
:1017600054420012111b7c430012111b70440012e2
:10177000111bb1450012111b19460012111b8146a5
:101780000012111bfe460012111b9f470012111b75
:1017900011480012111baa480012111b1049001217
:1017a000111b7e490012111bd3490012111b694afb
:1017b0000012111b1c4b0012111be34b0012111bda
:1017c000a04d0012111beb4f0012111b30500012e4
:1017d000111bac500012111b14510012111b62514d
:1017e0000012111bf7520012111b97530012111b0c
:1017f00008540012111b88550012111be9550012e4
:10180000111bff560012111bee570012111b0a5933
:101810000012111b645a0012111b1b5c0012111bd9
:10182000cb5e0012111b595f0012111b16600012d3
:10183000111b09610012111b6d610012111bd26591
:101840000012111b38680012111b0a690012111bcb
:101850007d6b0012111b9f6c0012111bcc6d0012ce
:10186000111be36d0012111b0bca0212111b49ca96
:101870000212111bb0ca0212111bdcca0212111b88
:10188000a8cb0212111b7fcc0212111bdc7e0012ae
:10189000111b357f0012111b967f0012111b008057
:1018a0000112111b1e800112111b3b800112111b22
:1018b00058800112111bda800112111b6d81011277
:1018c000111b3f830112111ba5830112111bf2830f
:1018d0000112111b2f840112111b64840112111bb0
:1018e000a6840112111b14850112111bc28501125d
:1018f000111bda850112111b16870112111b3e897b
:101900000112111bca890112111bfe890112111b40
:101910002c8b0112111b578c0112111b788c011298
:10192000111b968c0112111bd28c0112111b058dfb
:101930000112111bf1900112111b19910112111bbf
:1019400065910112111bee960112111b34970112c1
:10195000111b74970112111b2a980112111b019976
:101960000112111b779b0112111be89c0112111b24
:10197000599d0112111b939f0112111b0ba0011203
:10198000111b4fa00112111bb3a00112111b06a1c4
:101990000112111ba2a10112111bf0a10112111bb6
:1019a0004ba20112111b55a20112111b92a301128d
:1019b000111b25a40112111bf1a40112111b9da5dd
:1019c0000112111b4ea70112111b70a70112111b4e
:1019d0008da90112111be2aa0112111b7fab01128a
:1019e000111bd0ab0112111b68ac0112111b58aeb8
:1019f0000112111b69ae0112111b73ae0112111bf2
:101a000062b00112111bbfb00112111bfcb0011218
:101a1000111b69b10112111b98b10112111b41b2c6
:101a20000112111bbcb20112111b1db30112111bbb
:101a300093b30112111bcab30112111bffb30112a0
:101a4000111b1db40112111b7cb40112111b8ab4ad
:101a50000112111bc9b40112111b3ab50112111b5d
:101a600000d90212111b87d90212111babd9021225
:101a7000111bf6d90212111b33da0212111bccdc36
:101a80000212111b348f0212111b608f0212111be4
:101a9000ac8f0212111bf98f0212111b75900212ea
:101aa000111be5920212111b17940212111b1f97b2
:101ab0000212111b2e980212111b24990212111be3
:101ac000ab9a0212111b269b0212111b389c0212a8
:101ad000111bc5cc0212111bf1cc0212111b07cd38
:101ae0000212111ba1cd0212111bc7ce0212111b33
:101af000f5de0112111b5cdf0112111b79df0112ef
:101b0000111ba6df0112111bd2df0112111b06e00f
:101b10000112111b53e00112111b80e00112111b75
:101b2000e3e00112111b3ee10112111b03e201125d
:101b3000111b81e20112111b23e40112111bdbe4d2
:101b40000112111b92e70112111b05eb0112111b6f
:101b500047eb0112111b9ceb0112111b54ec0112fb
:101b6000111b2eee0112111bd2ee0112111b13efed
:101b70000112111b7fef0112111bd7ef0112111b74
:101b8000fdef0112111b50f00112111b91f0011217
:101b9000111b10f20112111b2af30112111b3bf34e
:101ba0000112111ba5f40112111bbbf40112111b30
:101bb000e3f40112111b82f50112111b97f50112ba
:101bc000111bc9f50112111be1f60112111ba1f73e
:101bd0000112111bd7f70112111b1cf80112111b66
:101be000cff80112111b2af90112111b2ffa011251
:101bf000111b83fa0112111bc7fa0112111b0efcf3
:101c00000112111b2bfe0112111b5bfe0112111b95
:101c100049d70212111b56d70212111b79d7021293
:101c2000111bbcd80212111bc9d80212111bf7d804
:101c30000212111b06bb0212111b7abb0212111bee
:101c40009fbb0212111beebb0212111b0bbc021236
:101c5000111bd6bc0212111b80be0212111bdebe6c
:101c60000212111becbe0212111bf3bf0212111b58
:101c70005cc00212111bc4fe0112111bf2fe011204
:101c8000111b22ff0112111b69cf0212111bf6cf8b
:101c90000212111b28d00212111b99d00212111b23
:101ca0003dd10212111b50d10212111b86100012dd
:101cb000111b7fdb0212111b4adc0212111b9ddc7f
:101cc00002e066701008a3e066700a08a3e0667080
:101cd0000408a3e06622c3e7960809e7960809e727
:101ce000960809e796a2d265d03322c3e09608a3ee
:101cf000e09608a3e09608a3e096a2d265d033222e
:101d0000c021c3e096f52108a3e096422108a3e094
:101d100096422108a3e0964221a2d265d033e52164
:101d20007001d3d02122c3e7960809e7960809e796
:101d3000960809e79622c3e09608a3e09608a3e078
:101d40009608a3e09622c021c3e096f52108a3e0ff
:101d500096422108a3e096422108a3e0964521700f
:101d600001d3d02122080808eac0e0ebc0e086f0e9
:101d7000e7a4fa180986f0e7a42afa180986f0e71a
:101d8000a42afa180986f0e7a42afa1986f0e7a42b
:101d9000fbe5f02afa190886f0e7a42bfbe5f03af8
:101da000fa190886f0e7a42bfbe5f03afa181809af
:101db00086f0e7a4c5f02bfbe43afa1908e7c5f072
:101dc000c6a426f6e5f03bfbe43afa1886f0e7a451
:101dd000f6e5f00826f6e43b08f6e43a08f6d0e02b
:101de000fbd0e0fa22e4cfc0e0e4cec0e0e4cdc016
:101df000e0e4ccc0e075f020c3e633f608e633f645
:101e000008e633f608e633f6181818ec33fced3321
:101e1000fdee33feef33ffc3ec9709ed9709ee9724
:101e200009ef97191919400fffec97fc09ed97fd81
:101e300009ee97fe191906d5f0beecf709edf70982
:101e4000eef709eff7191919d0e0fcd0e0fdd0e06a
:101e5000fed0e0ff22121ebd181818121de5121e3a
:101e6000ac19191922121eac191919080808e6181c
:101e7000181820e7e0121de5121ebd1818182209d7
:101e80000909e719191920e7dc080808e6181818e5
:101e900020e703021de5121ebd181818121de512d9
:101ea0001ebd181818121eac19191922e4c397f791
:101eb00009e497f709e497f709e497f722e4c39652
:101ec000f608e496f608e496f608e496f62260171b
:101ed000080808c6a2e713c618c613c618c613c654
:101ee00018c613c6d5e0e9226016080808c6c31351
:101ef000c618c613c618c613c618c613c6d5e0ea58
:101f0000227009080808226016181818c6c333c6bc
:101f100008c633c608c633c608c633c6d5e0ea22ab
:101f2000e627f60809e637f60809e637f60809e66f
:101f300037f622e026f608a3e036f608a3e036f6e8
:101f400008a3e036f622e026f008a3e036f008a366
:101f5000e036f008a3e036f022c3e697f60809e67b
:101f600097f60809e697f60809e697f622c3e0c651
:101f700096f608a3e0c696f608a3e0c696f608a370
:101f8000e0c696f622e056f608a3e056f608a3e06f
:101f900056f608a3e056f622e647f60809e647f6a5
:101fa0000809e647f60809e647f622e046f608a3e0
:101fb000e046f608a3e046f608a3e046f622e0462f
:101fc000f008a3e046f008a3e046f008a3e046f0de
:101fd00022e066f608a3e066f608a3e066f608a32a
:101fe000e066f622e0f608a3e0f608a3e0f608a310
:101ff000e0f622e6f008a3e6f008a3e6f008a3e680
:10200000f022e0faa3e0fba3e0fca3e0fd22eaf06b
:10201000a3ebf0a3ecf0a3edf022cac0e0e6f0a33e
:1020200008dafad0e0fa22cac0e0e0a30592f0a3f1
:102030000592daf6d0e0ca225392fefae9fb792142
:10204000e7f0a309dafae8f0a3ebf9f0a3ecf0a3c8
:10205000edf0a3eef0a3eff0a3e520f0a3e5f0f0a0
:10206000a3e592f0a3e584f0a3e585f0a3e581f074
:10207000a3e531f0a3e532f0a3e533f0a3d0e0fa15
:10208000d0e0f0a3caf0eac0e0e0c0e07a007b0054
:10209000225392fecac0e0ebc0e07921e0f7a30929
:1020a000dafae0f8a3e0f9a3e0fca3e0fda3e0fe88
:1020b000a3e0ffa3e0f520a3e0f5f0a3e0c0e0a3d8
:1020c000e0f584a3e0f585a3d0e0f592d0e0fbd065
:1020d000e0fae0f581a3e0f531a3e0f532a3e0f505
:1020e00033a3d0e0d0e0e0c0e0a3e0c0e0ea4b7072
:1020f000027a0122b90010bb0008e88af084f8aa2d
:10210000f022e4fbc8fa22eb70227b10c833c8c966
:1021100033c9335007c39ac3dbf280069a50012ab1
:10212000dbeac833f4c8c933f4c9fa2275f008e40d
:10213000c833c8c933c933c99ac99b5004c92ac90d
:102140003bd5f0ecfbc833f4c8e4c9fa22600d08b3
:10215000c6a2e713c618c613c6d5e0f322600c0862
:10216000c6c313c618c613c6d5e0f4227004226095
:102170000d18c6c333c608c633c6d5e0f4182225e9
:102180003210af08f532400215338008f5324002b4
:102190001533d2af22c0d0253210af08f53250022d
:1021a00005338008f53250020533d2afd0d0222556
:1021b00032f58210af08f532400215338008f5324f
:1021c00040021533d2af85338322c5822532c582c2
:1021d000c583353310af07f5338582328007f53379
:1021e000858232d2afc583222532f582e43533f5bc
:1021f00083222532f584e43533f58522e473539246
:10220000fe2532c582c0e0e53334ffc583c0e0e57a
:1022100032c3958224f810af0885833385823280db
:1022200008858333858232d2afcef0a3e520f0a3b8
:102230007821e608f0a3defaeff0a3e58124faf8ae
:10224000e608f0a3e608f0a3e608f0a30808e6080d
:10225000f0a3e608f0a315811581d0e0fed0e0f8e8
:10226000158115811581e8c0e0eec0e0225392fe91
:102270002532c582c0e0e53334ffc583c0e0e532d6
:10228000c3958224f910af08858333858232800894
:10229000858333858232d2afcef0a3e520f0a378d8
:1022a00021e608f0a3defaeff0a3e58124fbf8e6cf
:1022b00008f0a3e608f0a30808e608f0a3e608f093
:1022c000a315811581d0e0fed0e0f815811581e8d5
:1022d000c0e0eec0e0225392fe853383853282e077
:1022e000a3fee0a3f5207821e0a3f608dffae0a33f
:1022f000ffe0a3c0e0e0a3c0e0e0a3c0e0e0a3c033
:10230000e0e0a3c0e010af08858232858333800807
:10231000858232858333d2afd083d0825392fe023e
:1023200011185392fe853383853282e0a3fee0a329
:10233000f5207821e0a3f608dffae0a3ffe0a3c0d0
:10234000e0e0a3c0e0e0a3c0e0e0a3c0e010af087d
:102350008582328583338008858232858333d2af8c
:10236000d083d0825392fe22c0925392fec0d025d9
:1023700032c582c0e0e53334ffc583c0e0e532c337
:10238000958224f210af08858333858232800885d8
:102390008333858232d2afc8f0a3e9f0a3eaf0a379
:1023a000ebf0a37921e709f0a3d8faecf0a3edf064
:1023b000a3eef0a3eff0a3d0e0f0a3d0e0f0a3d021
:1023c000e0f0a3e520f0a3e5f0f0a3d0e0f0225385
:1023d00092fe853383853282e0c0e0a3e0f9a3e07a
:1023e000faa3e0fba37821e0f608a3dffae0fca360
:1023f000e0fda3e0fea3e0ffa3e0c0e0a3e0c0e0b7
:10240000a3e0f5d0a3e0f520a3e0a3f5f0e0a3c09e
:10241000e010af0885833385823280088583338559
:102420008232d2afd0e0d082d083f592d0e0f8d023
:10243000e032e584f0a3e585f022e0a3f584e0f541
:10244000852274048006740280027401c0e0f404e2
:102450001221afd0e012201a227404800674028088
:10246000027401c0e0f4041221afd0e01220272250
:10247000d083d082c5f0e493a3c5f0c395f0f5f006
:10248000e493a3c395f04005e5f0048001e475f002
:1024900002a42582f582e5f03583f583e493a3c099
:1024a000e0e493c0e022d083d082e9c0e0e493a3cb
:1024b000c386f0c5f095f0f908e493a386f0c5f063
:1024c00095f0700be493a3c3994005e9048002a33f
:1024d000e475f002a42582f582e5f03583f583d01a
:1024e000e0f9e493a3c0e0e493c0e022c0e0c0d0f0
:1024f00075d018c092c082c083c0f0e59da2e040b4
:10250000fae59d123b5f90039412200ee5abf8e5cf
:102510008958900398f0e58090039bf0900398e031
:10252000f4f5899062d0e0f8a2e15027900398e09a
:10253000a2e5501f53abdf9062d0e0a2e0e43390fd
:10254000039ef0900398e0c2e5f07b307a007906b4
:10255000121c5b900398e060097b007a00790612f8
:102560001c5bc2c5d0f0d083d082d092d0d0d0e056
:1025700032c0e0c0d075d008c092c082c083c0f025
:10258000e59da2e040fae59d123b5f900394122086
:102590000ee58df8e58a58900399f0e59090039c3c
:1025a000f07b017a007906121c5b900399e0f4f548
:1025b0008ac2eb80afc0e074f11223689061a9e495
:1025c000f09003a3e0640f7012e5c7f89005cee029
:1025d000f5c790ff1ce0f4f5ae88c7e5bbf9e5ba96
:1025e000fae9fb9003a3e0c333f8e433f974a428b9
:1025f000f582740339f583eaf0a3ebf09003a3e0ce
:102600002410fb7a007906121c5be5a8f8c2af9093
:10261000073ae0c2e2f0753400e8a2e7a2e792af21
:102620007f010223cfc0e0c0d075d018c092c08215
:10263000c083c0f0e5d1f875d100c2c0a2e3500953
:102640007b037a007904121c5b022564c0e0c0d0d1
:1026500075d008c092c021c022c082c083c0f05390
:1026600092fe90049a122765602b900455e0700c3e
:102670007401f07b007a007904121c5bee90049ade
:10268000f0e5c1c0e0749c2521f58274043400f5a6
:1026900083d0e0800be5c4a2e65006900454740198
:1026a000f0022754c0e0c0d075d008c092c021c04d
:1026b00022c082c083c0f0c2e95392fe900457e06a
:1026c000fa900456e09a543ff860258a2174582500
:1026d00021f58274041227cf900457f089c1900429
:1026e00098e06870197b027a007904121c5b800ef6
:1026f000e5a8f8c2af90073ae0c2e31227db8054a6
:10270000c0e0c0d075d008c092c021c022c082c035
:1027100083c0f05392fe900524122765602a90042e
:10272000dfe0700b7401f07b00fa7904121c5beea1
:10273000900524f0e5f9c0e074262521f5827405a2
:102740003400f583d0e0800be5fba2e65006900450
:10275000de7401f0d0f0d083d082d022d021d0928c
:10276000d0d0d0e032e0f52174012521543ffea302
:10277000e06e22c0e0c0d075d008c092c021c02257
:10278000c082c083c0f0c2ea5392fe9004e1e0fa36
:102790009004e0e09a543ff860258a2174e22521f4
:1027a000f58274041227cf9004e1f089f990052294
:1027b000e06870197b027a017904121c5b800ee5d7
:1027c000a8f8c2af90073ae0c2e41227db80853454
:1027d00000f583e0f974012a543f22f0753400e8d3
:1027e000a2e7e433f9e8a2e792af22c0e0c0d075d7
:1027f000d008c092c082c083c0f0759800e5a8f8e8
:10280000c2af5392fe90073ae0d2e1f0753400e88f
:10281000a2e7e433fee8a2e792af121589d0f0d028
:1028200083d082d092d0d0d0e032c082c083539285
:10283000fe906059e0f8900709e028f0906058e0b9
:10284000f890070ae028f090605a12286390605ec2
:1028500012286390605ce0f890070ce028f0d083c9
:10286000d08222e0f890070be028f022c082c083db
:102870005392fe900709e4f0a3f0a3f0a380de7466
:10288000f712226d7900121c0d9006551230a4ea41
:10289000c398f8eb99f9e82404fee93400ff9006a8
:1028a00062e0fca3e0fdc3ee9cef9d402e9006602d
:1028b000e0fca3e0fd900664e02af8a3e03bf9e821
:1028c000c39cf8e99df990065512309ba3ecf0a348
:1028d000edf0900662ecf0a3ed8023900655122dea
:1028e00071900662122e989006621230a4900657dc
:1028f00012309b90065ee070047402800114f07a3e
:10290000537b061238d802392b74f712226de96016
:102910000924fe601d14601a803290065ce0a2e378
:10292000500990065fe06024148020c2e2f0d2e3f8
:10293000801990065ce0a2e2500c90065fe064080b
:10294000600ae0048005c2e3f0d2e2f090065de0a8
:10295000700890065b74fff0804890600a122d6941
:10296000703d90618fe0c0e090065fe0f87408c3ae
:1029700098f8d0e0b800028004c313d8fcf52174a5
:10298000ff6521700990600ae4f0a3048010e5213e
:102990002401f8e43400f990600ae8f0a3e9f012a9
:1029a000287f02392b74f712226de924fc6006247b
:1029b000fe6028800d900722e06401705e12196da0
:1029c000805990067ce064017011900676e4f07bfb
:1029d000091231947900121c5b8040900676e070f9
:1029e0000890067474fff080327900121c0d8a2161
:1029f0008b22a821a922900678e028faa3e039fbcf
:102a000090618fe0541ff8ea28f8eb3400f9900643
:102a10006e12309b7a6c7b061238d802392b74f711
:102a200012226d74fe1221af1224329006c61230ab
:102a3000a4e82412fae93400fb90605ce060088aa4
:102a4000828b83e0d2e1f0e82430fce93400fde839
:102a50002432f584e93400f58590605ae0700690e0
:102a6000605ee060368a828b83e0a2e14019d2e1a9
:102a7000f0e82422f582e9122d4e122d6112216c0c
:102a80008c828d831238d0e40592f0a3f079008512
:102a900032828533835392fe023923e8241ef58265
:102aa000e9122d55fea3e0ff858482858583e02e03
:102ab000f0a3e03ff08c828d830592e0fca3e0fd63
:102ac000c30592e09ca3e09d50c388828983a3a3a1
:102ad000a3a3a3a3a3a3a38582848583858a828bd2
:102ae00083e0a2e1500474088002743e0592f07bfa
:102af00002888289830592a3a3a3a3a3a3a3a3e02f
:102b0000fa7900121c5b7901808574f512226d74cc
:102b1000fe1221af122432122d59240a122d3dfc2f
:102b20007003022d38ee242e1235891230a48e82c5
:102b30008f83a3a3a3a3a3a3a3a385822385832415
:102b40008e828f83a3a3a3a3a3a3a3a3a3aa82abd1
:102b500083ee2434122d52687003a3e069701a7456
:102b6000026c7003022cce74016c607774096c6087
:102b7000258a828b8374228055ec1460661470035e
:102b8000022cce24fa601c14600c146042147003f2
:102b9000022d14022d38906008e0a2e65003022da9
:102ba00038802cee2439122d4b801388828983a320
:102bb000a3a3e064037003022d3888828983122d59
:102bc0006970e88a828b83e0641370037416f07b6b
:102bd00002852382852483e0fa7900121c5b790147
:102be000022d3aee245512338dee244cfcef3400c6
:102bf000fdea24fff521eb34fff522e5216870039f
:102c0000e52269706dee244d122df78e828f8312ae
:102c10002d6f8c828d83e0c333f8e433f9e824030d
:102c2000f8e934001230929006f7e0a2e050098ee5
:102c3000828f83a3a3123097900711e4f0a3f0a32f
:102c4000f0a37402f09006f7e0a2e04003022d38f2
:102c5000906062e4f08c828d83e0f875f0e2a4c8a5
:102c6000aaf075f004a42af9e812308712309b020a
:102c70002d38ea687002eb696003022d387521096e
:102c80007522007821122446ee241bfaef3400fb53
:102c9000121cb574021221959006f7e0a2e05007cd
:102ca000eefaeffb1218b3e40592f0ee242212358f
:102cb00089122d6112216cee2430122d4b1238d066
:102cc000ee2432122d4be4f0a3f07b08805de82463
:102cd0000108e93400f9ee245c122d52687003a358
:102ce000e06970547521057522007821122446eea2
:102cf0002457fcef3400fdee2424faef3400fb12dd
:102d00001cb57402122195eefaeffb121967e40567
:102d100092f08024eefaeffb12158fe40592f00595
:102d2000929006f7e0a2e0500f7b0785238285246e
:102d300083e0fa7900121c5b7900023199f584ef87
:102d40003400f5850592e022ee2414f582ef123569
:102d50009522f582ef123703229006c61236dcee7a
:102d600022122ec474037821221230a8e84922a32b
:102d7000a3e028f0a3e039f02274f812226d74fe6b
:102d80001221af1224329006c6e0f584a3e0f58547
:102d9000122b0ae9704e122a1ee97048e584242e8f
:102da000f582e585122d552401f0a3e03400f09062
:102db0006008e0c0e0e5842436f582e585122d4efa
:102dc000d0e0f0e584241ef582e585122dfa059207
:102dd000a3a3e028f0a3e039f005929006c61233d1
:102de000901238d885328285338312243a740212c5
:102df00021957f01022322f582ef123595122e01d3
:102e000022e0f8a3e0f9e8c333f8e933f92274f7d4
:102e100012226d74fe1221af1224328a828b83a398
:102e2000a3ac82ad83900716ea241ef584eb122d25
:102e300040f8a3e0f9e8c333f8e933f99006f9e084
:102e4000f521a3e0f522122eae0592e028f8a3e0ca
:102e500039f98c828d8312309b900711122ea18c30
:102e6000828d83122e98900713122ea17a207b4e0a
:102e70001220f4882189228c828d83e09521f0a391
:102e8000e09522f0900718122ea1e8c333f8e93339
:102e9000f9e812307f02391cc3e098f0a3e099f002
:102ea000221230a89006f9122ec4122eae22e88506
:102eb00021f0a4c8aaf08522f0a42afa8521f0e91d
:102ec000a42af922e0f521a3e0f5222274f71222c8
:102ed0006d74fe1221af122432122d592412122dbc
:102ee0003da2e35008c2e3f005920230738e828f58
:102ef000830592a3a3858221858322906062e0608e
:102f0000107910121c0d852182852283eaf0a3eb33
:102f1000f0122b0ae9600302307c122a1ee96003da
:102f200002307c906008e0c0e0ee2436122d4bd0d9
:102f3000e0f09061d5e0f89061d7e0680592600517
:102f4000e0d2e28003e0c2e2f00592906062e0909d
:102f500007136017e024c0faa3e03437fb123b34b8
:102f60009007181236e212307f8015123390123b10
:102f70001e900718122dfd906064e028f0a3e03940
:102f8000f0852182852283e024fff0a3e034fff066
:102f9000ee242b122d52900715f0ee2420122d4b0b
:102fa000122d69604b8e828f83a3a3a3a3a3a3a337
:102fb000a3a3a3e0703aee243212338dea4b7030b3
:102fc000ee243912338dea4b7026e8240108e934e7
:102fd00000f99006f912309b8521828522831230f8
:102fe000a490071612309beefaeffb122e0e8027ec
:102ff0009006f97401f0a3e4f0ee241e122df7857b
:103000002182852283122d719007111230a485210f
:1030100082852283122e988e848f850592a3a3a386
:10302000a3a3a305929060641230a47a717b02126c
:1030300020f4e82405f8e93400f985848285858345
:1030400012309b8e828f83a3a3a3a3123390858417
:1030500082858583e0f8c3ea98eb99a2d265d033e4
:103060005005eaf0a3ebf01230a1ee242e122d4b06
:10307000122d719006c61233901238d802391d12e3
:103080003087e8f0a3e92224eaf8e93402f99060f5
:103090006422f98e828f83a3a3a3a3e8f0a3e9f0af
:1030a000229006f91230a822e0f8a3e0f92274f584
:1030b00012226d74fe1221af1224328031c2e51249
:1030c0003a89c0e0900720e0123178d0e0f0900714
:1030d00020e004f0a3e004f0a3e004f0900724e073
:1030e000700c7401f07b007a007900121c5b906018
:1030f0005ae0f521906002e0a2e0500478008005db
:1031000090605de0f8900721e0fae52128f8e434ca
:1031100000f9e86a7001e96057900720e0f5237430
:10312000012523547ff521e523123178e0f80808c2
:10313000900720e028f074802521f5827460123514
:103140008c9006c6e0f8a3e0c82408f584e83400b3
:10315000f585e0a2e70592e040030230bdd2e5f03c
:1031600012318b24dbf012319412318b4a0230cdb4
:10317000853282853383802a12317c22547ff87411
:103180008028f58274603400f58322900720e012d5
:10319000317ce022123a8efa2285328285338353c3
:1031a00092fe12243a74021221957f0402232274a3
:1031b000f512226d74fe1221af122432892105927c
:1031c0009006c6e0f582a3e0f58385828485838539
:1031d000a3a3a3a3a3a3a3a3e0a2e740479007232d
:1031e000e0f8906054e0c398f522900723e0252290
:1031f000f0ae82af838012ee2439faef3400fb1276
:103200001889ea4b6003121a7585222374ff25235f
:10321000f5220470e2e521a2e640097900eefaef1a
:10322000fb1219e5023199c0e074f1122368e5350b
:10323000f5c675a70075a1007950121c2b7f0102fd
:1032400023cfc0d075d01875bf00d0d032c0e0c039
:10325000d075d018c092c082c083c0f0e535f5c6e5
:10326000e591fe759b00f4f5915392fe906002e0ab
:10327000a2e050047800800278087900e844015efa
:1032800060031230aeeea2e55004f91231afeea2a7
:10329000e75029e5a8f8c2af90073ae0d2e0f07510
:1032a0003400e8a2e7e433f9e8a2e792afe594a29c
:1032b000e24009759403e594a2e250faeea2e640da
:1032c00003023364906061e0f9900721e4f0900715
:1032d00023f09006c61233908a828b83a3a3a3a304
:1032e000a3a3a3a3e02410601224fc600924fc70b3
:1032f0000f12290980661229a580611218ad805c21
:103300009006f6e060051460148023906060e0642d
:1033100080601be0c0e0123378d0e08010906058ed
:10332000e0f890605ce028f8123378e028f09060d4
:1033300060e064806016e0c0e09006c6e0f8a3e0bc
:10334000c82413f582e8122d4ed0e0f09006f7e085
:10335000a2e05005122ecc8003122d7912282a12d9
:10336000189b8004a2e75003123930d0f0d083d0ec
:1033700082d092d0d0d0e032ea242cf582eb123702
:1033800003fa74d12af58274061235952212359209
:10339000e0faa3e0fb2274f712226d74fe1221af53
:1033a0001224329006c6e0fca3e0fd1230a1ec240a
:1033b00029f582ed122d4eec242bfaed3400fb8a18
:1033c000848b857401687001e97012e0f80592e061
:1033d00028fac39425402a74db2afa8024e0f521d8
:1033e000e88521f0a4f8aaf08521f0e9a42af905de
:1033f00092e0fae82af8e93400f97a257b001220f5
:10340000f4eaf074075af87401b800028004c33378
:10341000d8fcfbea131313541ff8ec28f8ed340022
:10342000f9e82424f582e912358ce05b702a8005e6
:10343000e8cac39afaec24e5f582ed122d55f8eab4
:10344000c39850ec8a21ec2521f8ed3400f9e824ea
:10345000c0f582e9122d55faec242cf582ed122ddf
:103460004eea02391c74f612226d74fe1221af125c
:10347000243290067de09060026004740e80027435
:103480000ff0900677e0906001f09008b5122002ee
:1034900090619512200e1219f190067ce0f52174ce
:1034a0000165219006757040e05402f97a7e7b0632
:1034b0001218d1900675e0a2e050097a037b0775d7
:1034c000214080077afd7b06752100a2e150047e31
:1034d0008080027e00752306782312244a7c7e7d3c
:1034e00006e5214e44018066e0a2e050087a037ba5
:1034f00007784080067afd7b06780005929006a347
:103500001224617c847d0674b92521f58274081229
:10351000358ce048f91218d7740112219590067c79
:10352000e0f86005740268702e900675e0a2e05025
:10353000087a037b07784080067afd7b06780005d1
:10354000929006c31224617ca47d06e84404f9121b
:1035500018d77401122195900675e0a2e0e433f9c2
:103560001218cb75910090067de090618260047422
:10357000c8800274c0f085328285338312243a7485
:10358000021221957f03022322f582ef1235950561
:103590009222f582ef3400f58322c082c0835392d9
:1035a000fe906002740ff090065ee004f064037019
:1035b00002e4f0e02425906000f09008b5122002ab
:1035c00090619512200e90065ce05420f91218cb01
:1035d0001219f190065ce0a2e15004d2f08002c220
:1035e000f0a2f0e43390600cf090065ce0a2e150b1
:1035f0003575d90da2e55004784080027800e84482
:1036000003f5d9e0a2e550067a037b0780047afd32
:103610007b0679061218a1740675d9001470fae5b4
:10362000e170fc75e19575910090618274c102288a
:103630005d74f812226d74fe1221af12243212361c
:10364000cf1219f1122d4812200290619512200e0e
:1036500012371e1233961236e7f584ef3400f585e3
:103660008584828585831237091219e5ee241212aa
:103670002d52a2e250180592e0f8a3e0f58388826b
:103680000592a3a3e02402f89061d5e028f0022d72
:10369000e474f812226d1236cf1219f1122d48126d
:1036a000200290619512200e12371e1233961236a8
:1036b000e7122d4b1237091219e5ee241e122d4b7d
:1036c0001236e224fcf8e934ff123092022df29017
:1036d00006c61236dc906002740ff022e0fea3e012
:1036e000ff22122e01e822ee242c123700906000f7
:1036f000f075910090072ee0906182f0ee2439225f
:10370000f582ef3400f583e0221230a8ee24371260
:103710003592e8f0a3e9f07900eefaeffb22ee240f
:1037200036123700906008f0ee24181237009060cf
:1037300005f0ee2419123700906006f0ee241a12fc
:103740003700906007f02274f112226d74fe12218e
:10375000af1224327521007522007ccd7d06801bbe
:10376000888289831236dc8c828d83eef0a3eff0a1
:10377000888289831238d0882189228c828d831295
:103780002d5c4f70398c828d83eaf0a3ebf08a8236
:103790008b83e4f0a3f0aa21ab22853282853383a8
:1037a00012243a74021221957f08022322e5232570
:1037b00027f8e5243528f98a828b83122d6feef8dd
:1037c000eff988828983a3a38a848b850592a3a3ba
:1037d000e0f523a3e0f5240592e0c39523f523a3a8
:1037e000e09524f5248a828b83a3a3a3a3a3a3e05b
:1037f000f525a3e0f526c3e5239525e5249526a226
:10380000d265d033403e8a828b8312309b8a828b72
:1038100083a3a3a3a38582848583851230a4c3e5f3
:103820002398e52499a2d265d033500d85848285f2
:103830008583e523f0a3e524f08c828d83eaf0a351
:10384000eb02379588828983a3a3a3a3a3a3e0f502
:1038500027a3e0f528c3e49527f525e49528f52668
:10386000c3e5259523e5269524a2d265d0335028bb
:103870008a828b83a3a3a3a3a3a3a3a3e0a2e7505d
:10388000030237ad88828983a3a3a3a3a3a3a3a321
:10389000e0a2e7500302376088828983a3a3a3a331
:1038a000858284858385c3e49523fce49524fd12f9
:1038b00036dcc3ec9eed9fa2d265d033500b8584dd
:1038c00082858583ecf0a3edf0e8fce9fd02377b0f
:1038d000e521f0a3e522f02274f712226d74fe12a6
:1038e00021af122432ea4b6031a2afe433fec2af03
:1038f0001237478a828b838016aa82ab83858284a3
:103900008583850592e0f582a3e0f583123747e5cc
:1039100082458370e4eea2e092af8001f0853282ae
:1039200085338312243a74021221957f02022322e6
:1039300074f512226d7900121c0d8a238b2479777d
:10394000121c2b9061b1e4f0e070f87403f0e064b5
:103950000370f89006cd1230a49006c612309be892
:10396000497012123a72e594a2e24003023a6c7571
:103970009400023a6c888289831233909006cdead3
:10398000f0a3ebf088828983a3a3122ec4888289d6
:1039900083a3a3a3a3e02521f8a3e03522f9e8241b
:1039a000fdfee934ffff9060607480123a892410b4
:1039b000601424fc600624fc600780471234658094
:1039c0005212359a804de521c39523e5229524c3f3
:1039d0009400a2d265d0335025e5232401f521e5da
:1039e000243400f522c3e5219ee5229f400ae5210b
:1039f0002401fee5223400ff9006551238d012193a
:103a0000f780109006f7e0a2e050051236318003ef
:103a1000123691aa21ab227930121c1feefaeffb6d
:103a20007940121c1f7954121c2be521c39523f8f1
:103a3000e5229524f9c3e89401e99400a2d265d067
:103a400033500c121a09e5e170fc75e121801d90dc
:103a500005cde0a2e04012aa21ab22121c1990076a
:103a60000d12200e123a728003121a09121ae7027e
:103a700031aae5a8f8c2af90073ae0c2e0f0753489
:103a800000e8a2e7a2e792af22f0123a8e22900657
:103a9000c6e0f8a3e0c82408f582e83400f583e026
:103aa00022000000853487c2af22c0e0c0d075d0ac
:103ab00018c092c082c083c0f074fc12217f539260
:103ac000fe90073be0601c1218c59005cde0541134
:103ad0007008e5c654384487f5c690073be4f0c249
:103ae000c78026c2c7853282853383aa82ab831200
:103af0001a03e96401701290073b7401f085328269
:103b0000853383122002121adb75340074041221eb
:103b100095d0f0d083d082d092d0d0d0e03275c38f
:103b2000007420c39afa744e9bfbeaf5a2ebf5a34e
:103b30005392fe22c02175c301e5a2f521e5a375cc
:103b4000c300f9e5212420f8e9344ef9e8c39af8d6
:103b5000e99bf9e8f5a2e9f5a3d0215392fe22c032
:103b600082c08374fc12217fe5a8f8c2afe5958579
:103b700032828533835392fef0e596c0e0740112e1
:103b800021e8d0e0f0e597c0e074021221e8d0e02f
:103b9000f0e8a2e7a2e792af74031221e8e4f0850f
:103ba00032828533831220027404122195d083d08f
:103bb0008222030603020203030206020303010535
:103bc00002020100010101010000030200000500e2
:103bd00002070700020301010108060605030404a9
:103be00001030602020202010f0008030505020795
:103bf00001010901010201010200000003020201aa
:103c00000505020101030500010301000000010197
:103c100004040203020104010074f01221fe74f096
:103c200012217fe5c7f5289005cee0f5c775211074
:103c300075220078211224467c437d0674021221ed
:103c4000e8aa82ab83121cb5740212219578211266
:103c500024467c007d007a437b06121cbb74021252
:103c600021957521008058852182a882e875f06f22
:103c7000a4faabf09005cb123db7246ef582eb129f
:103c80006af0a2e050377f008f82ac82e875f0378f
:103c9000a4faabf0900639123db72cfaeb3400fbd6
:103ca000ea241af582eb126af0fa74432cf5827456
:103cb00006126af04af00fefc3941040cb05219032
:103cc00005cae0f8e521c398409d75210085218251
:103cd000a882744328f5827406126af0fa8532824b
:103ce000853383e58228f582e583126af06af00560
:103cf00021e521c3941040d5752100852182ae8233
:103d00007f00853282853383e5822ef582e583123a
:103d100058f8a3a3a3a3e0f8853282853383e58214
:103d20002ef582e583126af048f52260768f27e54a
:103d300022a2e0505b7523018f24e527782312210e
:103d40006ca82374432ef5827406126af05860043e
:103d5000790180027900744b2ef5827406126af0a4
:103d6000586004e9d2e1f98e238f2474037823127a
:103d7000216c852725e5232525fae5243400fb74ed
:103d8000a02af58274f73bf583e0fa7b0012140f4a
:103d90000527e522c313f522e527c394085004e55f
:103da00022708c0521e521c394085003023cfb8559
:103db00028c77410024374123dbb22e02afaa3e024
:103dc0003bfbea2274f61221fee975f037a4faab48
:103dd000f01215a1900639126516e5c7ff9005cec1
:103de000e0f5c790f79e125584e4c39af521741f3d
:103df0009bf52278211224467c007d00121cbb74a6
:103e0000021221958fc779087c3b7d067a007b00e2
:103e1000121abde96408601b75210875220078211b
:103e20001224467c007d007a3b7b06121cbb740288
:103e300012219502461474f01221fe74fe1221af75
:103e40001224328a278b281261010592a3858221d0
:103e5000858322125584ea4b60158e828f83a3a33b
:103e6000a3858223858324c3e09aa3e09b5008792d
:103e70000112173f023f6405929008911224597b6a
:103e80000705921260f9121c4f74041221958e825c
:103e90008f83a3a3a3a3a38582258583268e828fe8
:103ea00083e014604a14606414602c14600d147074
:103eb00003023f4a24fe607d023f648523848524fb
:103ec00085059212245d8521828522830592123f09
:103ed000811215f5023f5d782512244685238485dd
:103ee0002485059212245d123f6e1215e980167822
:103ef00025122446852384852485059212245d128b
:103f00003f6e1215bf7404122195805f782512242c
:103f100046ee2417f584ef126528059212245d857c
:103f2000238485248512245d123f6e1215ad74061c
:103f30001221958036ee2417f582ef126af0f523f0
:103f4000a3e0f524e52345247008123f7b1215ef0a
:103f500080197823122446123f7b1215c574021271
:103f600021958007aa27ab28121a750265c9ee248d
:103f700015f582ef126daa0592e0f985218285225e
:103f800083125a30aa27ab282274f61221fe74fe3f
:103f90001221af122432eafeebff89211260f712e0
:103fa0001c43124600242af582e585126af060223d
:103fb0000592e024fd600c24fc70147407652170e8
:103fc00011800c740a652160067401652170037507
:103fd0002100e4439201f00592f09005c9e0f5223a
:103fe000ac21eefaeffbe0f91213d99005c9e065b8
:103ff000226005a92212168502460674f61221fed9
:10400000e9ff8c218d22740a1221e8e0fd9005c998
:10401000e0fe7821122446effc9005c9e0f9121366
:104020008b74021221959005c9e06e6005eef912bd
:10403000168502461474f21221fe74fe1221af128c
:1040400024328a258b261240da121c439005c9e0df
:10405000ff858482858583a38582238583247821b7
:10406000122446eefd7c0485238285248312418838
:1040700012138b74021221959005c9e06f6005ef51
:10408000f9121685e5842417f8e5853400f98e21a8
:1040900088828983e02521f0a3e03400f074166e55
:1040a000701788828983c3e09416a3e094004009c6
:1040b000aa25ab2612173980197900852382852419
:1040c0008312558412173fe40592f0aa25ab2612fd
:1040d0001a75853282853383801c8c218d22e9fefe
:1040e0001256eb7b079005c9e0fa790122853282ee
:1040f0008533835392fe12243a74021221957f066f
:104100000222d674f41221fe74fe1221af12243260
:104110008a238b241240da121c430592e0f87407bc
:1041200068700feef9ac21ad22aa23ab2412174b15
:10413000804d740a6805929005c9700fe0ffeefc8f
:10414000aa21ab22e0f9121391801de0ff78211221
:104150002446eefd7c00858482858583a3124188f8
:1041600012138b74021221959005c9e06f6005ef60
:10417000f9121685e40592f0aa23ab24121a75856c
:104180003282853383025eb51274c19005c9e0f9ad
:104190002274f01221fe74fe1221af12243274fe3a
:1041a00012217f8a278b288a828b83a3a3a3a3a3b0
:1041b000a3a3a3a38582258583261260f7121c433f
:1041c000852782852883a3a3e024faf52312457f5f
:1041d0008525848526850592a385328285338305ce
:1041e000921245597e00804b9005c9e0ffe584247a
:1041f00002f521e5853400f522782112244674fe6b
:1042000029fd7c0385848285858312418812138b66
:1042100074021221959005c9e06f6005eff912163e
:1042200085852582852683e0f5212efee5842521de
:10423000126524852582852683e0f9eec395234007
:10424000a78921e523c3952112454a1245921217e9
:10425000390265c474f01221fe74fe1221af1224db
:104260003274fe12217f8a238b241260ec121c43cd
:10427000852382852483a3a3e024faf5221256e73e
:10428000858427858528e527242af582e52812607c
:10429000e27401f012656d640170047e0280027e9a
:1042a000107521008010e06f6005eff9121685741b
:1042b000022e2521f521e521c39522505a5392fe65
:1042c0009005c9e0ffa82185328285338312600ff3
:1042d000126528eef525782512244ae5842403fc8e
:1042e000e5853400fd12435805929005c9e0f912a6
:1042f00013a37401122195e99005c970a9e06f60bc
:1043000005eff9121685852782852883e4f0aa2314
:10431000ab24121a75803e852221e52124fef8e4a3
:1043200034fff98e21e8c39521f8e99400f985322c
:10433000828533835392fe125f492401f8a3e0344f
:1043400000f98527828528830592a3125a21aa2382
:10435000ab241217390265c40592a3e0faa3e0fb6f
:104360002274021221958532828533835392fe1284
:10437000243a74021221957f080222d674f0122189
:10438000fe74fe1221af12243274fe12217f8a279e
:104390008b281260ec121c43852782852883a3a3f7
:1043a000e024fbf521125100059290063912555573
:1043b000858225858326e525242af582e526125166
:1043c000597f00800de06e6005eef91216857404c9
:1043d0002fffefc39521505feff885328485338539
:1043e0001244671260e28582848583850592900578
:1043f000c9e0fe752202782212244ae5252417f529
:1044000023e5263400f52478231224461245681249
:10441000139d7403122195e99005c970a8e06e60a0
:1044200005eef9121685852582852683e4f0aa27f4
:10443000ab28121a75802da821853282853383e03e
:1044400028f8a3e012651f24fef582e934fff58306
:104450001245a7852582852683a3125a21aa27ab58
:10446000281217390265c40592e028f582a3e022dc
:1044700074f01221fe74fe1221af12243274fe1267
:10448000217f8a278b288a828b83a3a3a3a3a3a33c
:10449000a3a3a38582258583268a828b83a3a3e099
:1044a00024faf5211260f7121c4312457f853282ef
:1044b0008533831245597f008012e06e6005eef966
:1044c000121685852582852683e02fff8525828526
:1044d0002683e0f8efc39521505b8f23e525252344
:1044e000fae5263400fb8a828b83a3858284858348
:1044f000859005c9e0fe74fc28f522782212244a32
:10450000ea2405f523eb3400f5247823122446121f
:10451000456812139d7403122195e99005c9709a9c
:10452000e06e6005eef9121685126b6faa27ab28b4
:10453000121a7580128823e521c3952312454aa3d8
:10454000a31245921217390265c4f895e0f9e525e2
:1045500028f582e52639f58322127428242af5826b
:10456000e8126daa7401f022858482858583a3a355
:1045700012555efaa3e0fb05929005c9e0f92212fc
:104580006b5912458622853282853383e8f0a3e990
:10459000f022a31245a7853282853383126b4b121a
:1045a000458caa27ab2822e02401f8a3e03400f9c7
:1045b0002274f61221fe74fe1221af12243212165a
:1045c00085e970047a86801c124600241612652440
:1045d0000592e0a2e040047a818009121a6fea4b4a
:1045e00070067a827b01800d0592e0c2e0f012161f
:1045f000017a007b008532828533835392fe800ce2
:104600001256ebe5842285328285338312243a7474
:10461000021221957f020222d674f21221fe74fe4c
:104620001221af122432eafeebff8c258d261216e2
:1046300085e970047a86801212497760047a818055
:1046400009121a6fea4b70067a827b01803074106f
:104650001221e8e0f8c394145004882280037522e4
:10466000148525238526247823122446a922eefcce
:10467000effd1215e374021221957a007b000240cf
:10468000ed74f01221fe74fe1221af1224328a273b
:104690008b28ecff121685e970047a868025124972
:1046a0007760047a81801cefa2e04005c394045037
:1046b000047a80800e121a6f8a258b26ea452670ae
:1046c000067a827b018034efc394165004effe809b
:1046d000027e16740a1248051224597b07059212ad
:1046e00060f9121c4f7404122195eef9ac27ad2825
:1046f000aa25ab261215d77a007b0002436674f018
:104700001221fe74fe1221af1224328a258b26ec70
:10471000feedff74141221e8e0f521c39413501943
:10472000121685e970047a86802112497760047a2e
:10473000818018e525452670047a80800e121a6f54
:104740008a278b28ea452870067a827b01804d747f
:10475000080592f0a3e525f0a3e526f09008911254
:1047600024597b0705921260f9121c4f7404122120
:104770009574121221f2059212245d8e238f240566
:10478000927823122446a921ac25ad26aa27ab286e
:104790001215cb74041221957a007b0002436674d3
:1047a000f41221fe74fe1221af1224328a22121654
:1047b00085e970047a86801a12497760047a8180cc
:1047c00011121a6f8a238b24ae23af24ee4f70068a
:1047d0007a827b01802c74091248051224597b07c8
:1047e00005921260f9121c4f7404122195e52260a3
:1047f00004790180027900eefaeffb1215d17a00fc
:104800007b00025eac0592f0a3e4f0a3f090089167
:104810002274f01221fe74fe1221af122432eafe3d
:10482000ebff8c278d28121685e970047a86801f8d
:1048300012497760047a818016ee4f70047a808086
:104840000e121a6f8a258b26ea452670067a827b1d
:1048500001805474121221e8e0f8c39414500488c3
:1048600021800375211474060592f0a3eef0a3efe6
:10487000f09008911224597b0705921260f9121cde
:104880004f74041221958527238528247823122428
:1048900046a921eefceffdaa25ab261215dd740218
:1048a0001221957a007b0002436674f41221fe7493
:1048b000fe1221af122432eafeebff121685e970d8
:1048c000047a86801a12497760047a818011ee4f4b
:1048d00070047a808009121a6fea4b70067a827b24
:1048e00001802a7407124972eef0a3eff0858482ea
:1048f000858583a3a3a3eef0a3eff0e5842417f549
:1049000082e5851274031217397a007b00025eaccf
:1049100074f41221fe74fe1221af122432eafeeb6f
:10492000ff121685e970047a86801a1249776004ae
:104930007a818011ee4f70047a808009121a6fea32
:104940004b70067a827b0180267405124972a3a3fc
:10495000a882a983eef0a3eff088828983125a39e6
:104960000592a3e8f0a3e9f01217397a007b000260
:104970005eac124ae9a3221256eb0592e02274f2d1
:104980001221fe74fe1221af1224328a218b22ecf6
:10499000feedff121685e970047a868012124977bf
:1049a00060047a818009121a6fea4b70067a827b62
:1049b00001801d7404124972e521f0a3e522f0057f
:1049c00092a3a3a3eef0a3eff01217397a007b00b5
:1049d0000240ed74f01221fe74fe1221af12243257
:1049e0008a278b288c258d26121685e970047a86f5
:1049f000802e12497760047a81802574141221e890
:104a00000592e0ff74026f600974106f60047a8091
:104a1000800e121a6f8a238b24ea452470067a824c
:104a20007b01803474030592f08f2175220005927a
:104a3000782112244674141221e8124b0e121cb570
:104a40007402122195124a5b858482858583124afd
:104a5000f51217397a007b00024366e5842415f5c8
:104a600082e585126daaeff02274f01221fe74fe29
:104a70001221af1224328a278b288c258d261216fc
:104a800085e970047a86802e12497760047a8180e5
:104a90002574141221e80592e0ff74026f60097416
:104aa000106f60047a80800e121a6f8a238b24eaba
:104ab000452470067a827b01802c8f217522007834
:104ac0002112244674141221e8124b0e121cb574e4
:104ad00002122195124a5b7401124ae9124af51238
:104ae00017397a007b000243660592f0858482853f
:104af0008583059222a3e527f0a3e528f00592a37c
:104b0000a3a3e525f0a3e526f0aa23ab2422125a9d
:104b100030e5842405fae5853400fb2274f0122187
:104b2000fe74fe1221af12243274fe12217f126530
:104b3000108c278d2874141221e8e0fea3e0ff12e8
:104b40001685e970047a86802a12497760047a8192
:104b5000802174181221e80592e0f522c3941140d7
:104b6000047a80800e121a6f8a258b26ea452670f9
:104b7000067a827b018069e5842417f582e5851237
:104b800060e2eef0a3eff074020592f0e5842415e4
:104b9000f582e5851260e2e5220592f0f5237524a1
:104ba00000782312244674181221e8124b0e121cae
:104bb000b57402122195853282853383125a398564
:104bc0008482858583a3125a210592a3a3a3e52796
:104bd000f0a3e528f0aa25ab261217397a007b004e
:104be00002436174f11221fe74fe1221af122432cd
:104bf00074fc12217f74021221e8126516e5c7f5d4
:104c0000279005cee0f5c774021221e812743785ab
:104c10003284853385e5820592f0a3e583f0853201
:104c2000828533830592125c0ff874021221e81218
:104c30004d73059290f79de0f525ff741dc39af51d
:104c4000268e228e2180080522efc313ff052190b6
:104c5000f79ce0fce521c39c5044eec39526503ef2
:104c6000124d8570e8efa2e050dfa3a3a3a3a3e059
:104c7000640270d37523027524007823122446122f
:104c80005a258e23e584252312651c2402fae93473
:104c900000fb121cb574021221950e0e80abee6063
:104ca00013858482858583a3ef6004740280027477
:104cb00003124d5ce5227003024d54853282853328
:104cc000835392fe126573f8741dc398fa95e0fb46
:104cd000c3ea9410eb9400a2d265d03340767402fc
:104ce0001221e8124d73af258e218006efc313ff0a
:104cf0000521e521c39c5042e526603e5392fe12f9
:104d00004d8570ecefa2e050e3a3a3a3a3a3e0645e
:104d10001070d97523108e247823122446125a2538
:104d2000e5842402fae5853400fb121cb5740212f6
:104d300021957e1074ff2522600e858482858583ef
:104d40005392fea374068009858482858583a374ab
:104d500007124d5c8527c77404026c86f074012e1f
:104d6000f80592f0088532828533830592126577c3
:104d700028f022059212600f3400f5850592a3a356
:104d8000a3a37e002290f796127475e52175f006b4
:104d9000a4faabf0e82afae93bfb8a828b83e02293
:104da00074f01221fe74fe1221af12243274f91233
:104db000217f853282853383ecf0a3edf08a278b47
:104dc00028e9fe752200126b6f8a828b830592a3fd
:104dd000a3a3a385822385832474026e600caa2377
:104de000ab24121c85e960027e0274191221e812bc
:104df0005a3974191221e8125a2174191221e81231
:104e00005ff074100592f074026e6003024e948598
:104e100023828524830592125a39e8700374286925
:104e200070567f0074191221e8125ff0740a05921f
:104e3000f0e5c7c0e074041221e8d0e00592f090dc
:104e400005cee0f5c7126b6f059290f79ce0f52652
:104e5000f582ac82852782852883126c7d500302ff
:104e60004fce852782852883a3a3125584c3ec9a4d
:104e7000e49b50258c258024740168700374286994
:104e800070047f01809e7403687003742869700445
:104e90007f0280907900024fdbeaf525e814f521c6
:104ea000801274021221e8127434e521f0a3e4f0b8
:104eb00015210521e521c395254003024fbf125a54
:104ec0003674051221e8125a21852182a882e875dc
:104ed000f006a4faabf074051221f20592e02af56f
:104ee00082a3e03bf583ac82ad830592e06f70c294
:104ef000852282aa828532848533850592e02a1232
:104f00004fe074021221f2e5820592f0a3e58312cc
:104f10006ac9e02404f52712656df5236009e527c9
:104f200065236003024fbf852723ea126ad6400338
:104f3000024fbfe527f0eaf522e8240108e4340037
:104f4000f974021221e80592125ff0e80592f0a3cd
:104f5000e9126ac91257da1224468c828d83a3a300
:104f6000a312742e1221e8126b15121cb5740212d2
:104f700021958029e52175f006a4f8a9f0740512a1
:104f800021e85392fe125c06f87003024ea27401ef
:104f9000687003024ea2e86f7003024ea20521e57d
:104fa00021c3952640cee52665216003024ea274fa
:104fb000021221e812743474fff0a3f0024eb2e53d
:104fc00022600b74191221e85392fe126b7574045f
:104fd0001221e85392fee0f5c7a922740702436349
:104fe000f582a3e0126daa0592a32274f71221fea6
:104ff00074fe1221af1224321240e0121c430592bb
:10500000e0f8740668600a740868600574096870de
:105010001ce41251507c001243580592e0f912131f
:10502000d99005c9e06e6005eef9121685025fc4dd
:1050300074f21221fe74fe1221af1224328a258be3
:1050400026ecffedfeec24010ce43400fd1215b358
:105050008a848b8574101221e8125a2cec4d701d35
:10506000eff9121823e9fec3941540027e147d0067
:10507000eefceff9aa84ab8512183b801aeec394bc
:105080001540027e148e21752200782112244612ca
:105090001cb57402122195eef9aa25ab261215b99a
:1050a0000240d2853282853383025fcd74f71221ac
:1050b000fe74fe1221af1224328a848b851250eec8
:1050c00060237b081260f9121c431250eefae4f0e0
:1050d0009005c9e0fef91213979005c9e06e6005ce
:1050e000eef9121685aa84ab85121a7580b5125195
:1050f00000900639125f432419f582e9126af422fe
:1051000012510422125108229005c9e075f037a40b
:10511000f8a9f02274f71221fe74fe1221af1224b6
:1051200032124977640b6025e5842419f582e58500
:105130001251591256e7740b0592125150f912137d
:10514000d39005c9e06e6005eef9121685025fc4c2
:10515000f005929005c9e0fe22126daa7401059235
:10516000f02274f11221fe74fe1221af1224327467
:10517000fc12217f74021221e812651689228c2705
:10518000e975f006a4f8a9f090f7961268f6f5858f
:105190000592a3a3a3e0f582a3e0f583858284852d
:1051a0008385a3e0f80592e0f52675210074075881
:1051b000f97401b900028004c333d9fcf525e81362
:1051c0001313541ffe804c05929008911224597bb2
:1051d0000805921260f9121c4f7404122195740193
:1051e0002522c0e0125ec224191260dfd0e0f07404
:1051f000021221f2059212245dad27ac22791d74b2
:10520000021221e805921255841217c97402122164
:105210009505219005cae0f8e521c39840030252a4
:10522000c6852182a882e875f06fa4faabf09005dc
:10523000cb1252d4e584246ef582e585126af0a281
:10524000e050cee89005c9f09005c7e584f0a3e5ed
:1052500085f0e526a2e45031e81252e2f8eb39f984
:10526000e8241a126aed5525601f121a6fea4b6086
:105270005574021221f2059212245dad27ac2279f9
:105280001b1217c97402122195e526a2e5508290df
:1052900005c9e01252e2faeb39fbea2422f582eb6f
:1052a000126af0552570030252111250f160030288
:1052b0005211121a6f126510853282853383126083
:1052c000e660030251c7740412219585328285334a
:1052d00083026c921252d822e02af584a3e03bf5b7
:1052e000852275f037a4f8a9f0900639e02efaa3cc
:1052f000e03400fbea282274f01221fe74fe122131
:10530000af12243289218c278d2875220074121245
:1053100021e8e0fea3e0ff8e828f83e0f525e5c75c
:10532000f52412556df52690f79ce0f8e526c39814
:1053300040097522018e828f838023e526125a3d13
:1053400070098524c77a887b018049a92612182311
:10535000e98e828f83f0c395215007752207e4f010
:105360008022a821e0c398f0f8c395255004882333
:105370008003852523e523f0ad21fca926aa27abd0
:105380002812183b8524c7e5226005fa7b048004b7
:105390007a007b0002436674f61221fe74fe12212d
:1053a000af122432eaf8ecfaedfb752100e5c7fef6
:1053b0009005cee0f5c7e814fd740c1221e8125aee
:1053c0003990f79ce0fcedc39c400b75210188826d
:1053d0008983e4f0801eed1265440592e0fca2e7ab
:1053e0005004741080027402888289830592f0ec64
:1053f000f9121c918ec7e521a2e05005fa7b0480ca
:10540000047a007b0002460674f01221fe74fe123c
:1054100021af12243274fe12217f853282853383bc
:10542000ecf0a3edf089257e00125567f52290f788
:105430009ce0c395225003025548e52275f006a46e
:10544000f8a9f0059290f796125555858227858325
:10545000280592a3a3e0fc24fa600a14600724fb49
:10546000600302554674141221e8e0f521740c6cb7
:10547000700302552e8527848528850592a3a3a352
:10548000e0f582a3e0f583852584aa84858284855e
:105490008385a3a3a3a3e0f8852123ea2523f5238d
:1054a000e43400f524e89523e49524c365d0335013
:1054b000057e0d0255490592a3a3858284858385c7
:1054c000852182a882790074066c88238924782338
:1054d000701b12244674021221e8125559faa3e0f7
:1054e0003400fb121cb5740212219580311224463f
:1054f00074021221e8125559124fe0aa82ab8312ae
:105500001cb57402122195e5212525c0e08527826e
:10551000852883a3a3a3126582d0e00592f0852796
:10552000828528835392fea3a3e0640c700b85321e
:105530008285338312558480047a007b00ac21a9d4
:10554000221217db80050e0e0e7f048526c7eefaa9
:10555000effb0243611265ba2212555e2a22e0fc7b
:10556000a3e0fd0592e0227f00e5c7f5269005ce79
:10557000e0f5c7ea1422858482858583e024f9f961
:105580008e828f831274c12274f41221fe74fe1273
:1055900021af1224328c848d85e9ffe5c7f52112f5
:1055a000556dfe90f79ce0c39e50047901803474e1
:1055b0000e1221e8e0f52260047a0280027a80ee81
:1055c000f912181de9701ce4f523f5247823122440
:1055d00046ad22effcaa84ab85eef91218357402b1
:1055e0001221958521c702417f74f31221fe74feba
:1055f0001221af1224328a218b221256e78a828b23
:1056000083a3a3a3a3a3a3a3a3a3e0700f1257e3b1
:10561000121889ea4b607a121a7580f1e5c7fe907c
:1056200005cee0f5c7e584242bf523e5853400f5a8
:10563000248523828524831260e6605388828983cf
:10564000a3a3a3a3a3a3a3a3a3aa82ab83e0ff8adc
:10565000848b850592a3a312245d7d0188828983b2
:105660000592a3a3e024f7fcea2404faeb3400fb40
:1056700074ff2ff91218357402122195e9f525aa45
:1056800023ab24121889121a75e525702080a28e8a
:10569000c7852182852283a3a31273f17419f0793f
:1056a00000aa21ab221215b9802a121a751257e3eb
:1056b000121889ea4b70f3e525f523782312244a62
:1056c0008f23ac237d007918aa21ab2212160d740a
:1056d0000112219585328285338312243a74021295
:1056e00021957f050222d61256eb22125104900614
:1056f000391256f522e028f584a3e039f5852274a5
:10570000f41221fe74fe1221af1224328a848b859a
:10571000858482858583a3a3a3a3a3a3a3a3a3ae08
:1057200082af83e5c7f5219005cee0f5c78e828f65
:1057300083e014f990f79ce0c39950217401f5219e
:10574000782112244a8e828f83125a2c7916aa84c9
:10575000ab8512160d740112219502417f7a021257
:10576000181de970d9121a6f8a238b24ae23af2437
:10577000ee4f8521c77003025a58ac84ad8512578d
:10578000e312188f858482858583a3a38582218572
:1057900083221257da122446e5842404fce585347a
:1057a00000fdee2404faef3400fb121cb574021263
:1057b0002195852182852283e08e828f83a3a3f0a9
:1057c0008e828f83a3a3a3a3a3a3a3a37417f079ab
:1057d00000eefaeffb1215b98080e0f52375240086
:1057e000782322125ec6242bfae93400fb2274f0df
:1057f0001221fe74fe1221af12243274fb12217f9b
:1058000074031221e812651689258c278d28126be6
:105810005574011221e8125a21e5c7fe9005cee029
:10582000f5c78c828d83a3a3e0f88821ec2521f5b0
:1058300082ed1258f8858221858322741bc398ff5c
:105840008027e9cfc39fff852782852883a3a3e014
:105850002523f0e5212523f521e5223400f52274e6
:10586000011221e812590504f074011221e81259bd
:1058700005fac395255071ef606e853282853383ba
:105880008582238583247823122446782112244696
:10589000eff97c007d00eac333fae433fb740712ae
:1058a00021e8125c14faa3e0fb12180b7404122115
:1058b00095e9f523853282853383e06085853284de
:1058c000853385059212246174041221e805921231
:1058d0006573fca3e0fd790eaa27ab2812160d74a0
:1058e000011221958ec7800b8ec77900aa27ab289d
:1058f0001215b974050265c61258fc223400f583ee
:10590000a3a3a3a322127450e02274f01221fe7408
:10591000fe1221af1224328c218d22e9fe1255672e
:10592000f52574141221e8e0f527a3e0f52890f797
:105930009ce0c39525500b8527828528837401023e
:1059400059f47a01a92512181de985278285288333
:10595000f06003025a15852582aa8274121221e88a
:10596000125a3974121221e8125a21ea125a3d7061
:105970006c05921256e7a884a985e82431126aedd5
:10598000705074121221e8125a2ce824341260df8d
:10599000ecf0a3edf0e824361260dfeef09005c9dc
:1059a000e0ffeef523782312244aac21ad22ea244d
:1059b000010ae43400fb9005c9e0f91213a974014f
:1059c0001221959005c9e06f6005eff91216850266
:1059d0005a4f126ae88527828528838017a92512e5
:1059e0001823e9ffc39521e49522500b8527828572
:1059f00028837407f0801ee521cfc39fffeec39f6d
:105a00005002eeffad21effca92574121221e8121d
:105a1000558412183b8526c7eff90265c9f9900530
:105a2000c712458c228a828b83a3a3a3125a3022e9
:105a3000e0fca3e0fd2290f7961274752275f00643
:105a4000a4f8a9f090f796125f4ea3e0640c227ab6
:105a5000017b0090060680077a017b009005947414
:105a60000802209174f11221fe74fe1221af12245b
:105a70003274f812217f12651074061221e8ecf0de
:105a8000a3edf089277f00e5c7f526126afaf52213
:105a9000126b1f5003025bfc126b3650048c21808a
:105aa00003eaf521e814fe853282853383127446b9
:105ab00074041221f2e5820592f0a3e583f08013cd
:105ac000888489850592e0f8a3e0f9e80592f0a3bf
:105ad000e9f00eeec395214003025bfc5392fe12e7
